:020000040800F2
:1000000090180020291300080D1300080F13000892
:1000100013130008171300081B130008000000004A
:100020000000000000000000000000001F13000896
:100030002113000800000000231300082513000806
:100040003F1300083F1300083F130008E7100008A3
:100050003F1300083F1300083F1300083F13000838
:100060003F1300083F1300083F1300083F13000828
:100070003F1300083F1300083F1300083F13000818
:100080003F1300083F1300083F1300083F13000808
:100090003F1300083F1300083F1300083F130008F8
:1000A0003F1300083F1300083F1300083F130008E8
:1000B0003F1300083F1300083F1300083F130008D8
:1000C0003F1300083F1300083F1300083F130008C8
:1000D0003F130008153300083F1300083F130008C2
:1000E0003F1300083F1300083F13000800F002F818
:1000F00000F041F80AA090E8000C82448344AAF181
:100100000107DA4501D100F036F8AFF2090EBAE87E
:100110000F0013F0010F18BFFB1A43F0010318473B
:100120003C4000005C400000103A24BF78C878C111
:10013000FAD8520724BF30C830C144BF04680C60ED
:10014000704700000023002400250026103A28BF35
:1001500078C1FBD8520728BF30C148BF0B60704739
:10016000642903F05F81002070471FB503F0ABF9ED
:100170001FBD10B510BD03F089FA1146FFF7F5FF5A
:1001800001F091F803F0A7FA03B4FFF7F2FF03BC04
:1001900003F066F80B49D1F800C04A685CF8043BEC
:1001A0001068184442F8040B8C4528BFA1F1DC0C00
:1001B0008A4228BFA1F1DC02C1F800C04A6020F0E9
:1001C00000407047281000202DE9F84F054688466A
:1001D0001646FFF7DFFF0A2190FBF1F201FB120048
:1001E000401C00F0FF09152E01DA072E03DC6548DC
:1001F000E860BDE8F88FB9F1060F01DCE868F8E7C0
:100200000027FFF7C7FF0A2190FBF1F201FB120064
:10021000401C00F0FF0900241CE008EB88005A4A4B
:1002200002EB800050F82410584803F0F1FA83469E
:10023000384603F0D9FA5946009003F053FA824643
:1002400003F0B2FAC7B24F4502DB601CC4B203E050
:10025000601CC4B2052CE0DB00BF601EC4B24C4879
:1002600050F82400E8604A4850F82400C1E770B50F
:100270000446E0680078012821D120680A2802DCC1
:100280000120207211E02068122802DB0020207279
:100290000BE0FFF77FFF0546C01705EB907080105D
:1002A000A5EB8000C6B206B92672207A18B1206884
:1002B000401C206002E02068401E206000E000BF7B
:1002C00000BF70BD10B5334800F0CDFB3148007859
:1002D000314908702F48407848703048007888705D
:1002E0002E484078C8702D488078087100F032FDA3
:1002F0002949C88010BD28480078002801DD012068
:1003000000E00020122803DA2548264908610AE0A7
:1003100021480078172803DD23482249086102E0BC
:100320000020204908611C484078002801DD012098
:1003300000E000202D2803DA00201C4908610AE0B3
:1003400015484078412803DD19481849086102E042
:10035000002016490861704710B5FFF7B3FF0E483B
:10036000827800211348FFF72FFF1248FFF77FFF25
:10037000104811490860FFF7BEFF0C480F4948605C
:1003800010BD0000C43A0008D03A00080000204127
:10039000300000205800002000000020780E0020CF
:1003A0005C40000808000020544000081C000020A9
:1003B0006440000844000020B4000020AC0000208D
:1003C00010B50346002B05DB0F2B03DC002901DBF6
:1003D000072901DD012010BD01EBC300C0F17F0042
:1003E00000EB4000594C20441488048094788470B9
:1003F0000020F0E72DE9F047804689461446207832
:1004000061784843401E00F0FF0A00251DE00026E9
:1004100016E0217805FB11A1891B6068405C47B29A
:10042000781C58B107EB4703DFF824C103EB0C023B
:1004300009EB0501A8EB0600FFF7C2FF701CC6B26E
:100440002078B042E5DC681CC5B26078A842DEDCEA
:10045000BDE8F0872DE9F0478046894614462078AC
:1004600061784843401E00F0FF0A00251FE0002687
:1004700018E02278681C00FB12A2701C104461680E
:10048000085C47B2781C58B107EB4703DFF8C0C0DF
:1004900003EB0C0209EB0501A8EB0600FFF790FF48
:1004A000701CC6B22078B042E3DC681CC5B260782C
:1004B000A842DCDCBDE8F0872DE9F04106460025C6
:1004C00023E056F82540FCB1E06858B1D4E90310A8
:1004D0004968884203D0E0684068206102E0E06833
:1004E00080682061206978B12768D4F80480207A78
:1004F00028B1414638462269FFF7ACFF04E0414687
:1005000038462269FFF776FF6D1C022DD9DBBDE866
:10051000F08110B50D4800F07CFB10BD10B54FF414
:10052000C0710A4802F0D8FF10BD10B5FFF7F6FF02
:100530000848FFF7C1FF0848FFF7BEFFFFF7E9FFD4
:1005400010BD10B500F02AFB10BD0000F80000201F
:100550000C3B0008AC000020B40000207CB5044631
:100560000D460020234601221146CDE9005040F2FD
:10057000B27000F0FCFC7CBD2DE9F04704460D464E
:1005800016461F46DDF820904FF47A70604305EB65
:10059000C50101EB051100EB810006EB860100EBC4
:1005A000410038441FFA80F8B9F1000F03D0002051
:1005B0006349088008E062480088404501D1BDE8F1
:1005C000F0875F48A0F80080FFF7A8FF601C30B1FB
:1005D0005C4850F8242000210220FFF70BFF681C24
:1005E00030B1584850F8252000210620FFF702FFBF
:1005F000701C30B1544850F8262000210B20FFF722
:10060000F9FE781C30B1504850F8272000210F2007
:10061000FFF7F0FEFFF77DFF00BFD0E72DE9F84FB1
:1006200004464A48057846780A2096FBF0F100FB1C
:10063000116796FBF0F895FBF0F100FB115995FB63
:10064000F0FA3B464246494650460094FFF794FF75
:10065000BDE8F88F2DE9F84F002000F078FD044642
:100660004FF00208002739480578467866E00120F7
:1006700000F06DFD044627B1012F2CD0022F58D178
:1006800051E0444500D159E04FF0FF080A2095FBA6
:10069000F0F100FB115995FBF0FA0020431E1A46B9
:1006A000494600905046FFF767FF012C03D1781CA4
:1006B000C7B2A0460EE0022C07D1681C182190FB9F
:1006C000F1F201FB1200C5B204E0032C02D10120BB
:1006D000BDE8F88F2DE0444500D12FE04FF0FF0832
:1006E0000A2096FBF0F100FB116996FBF0FA00205E
:1006F0004B465246411E00900846FFF73DFF012C35
:1007000002D1781CC7B20DE0022C07D1701C3C212D
:1007100090FBF1F201FB1200C6B203E0032C01D101
:100720000120D5E705E031462846FFF717FF0020F6
:10073000CEE700BF642002F065FD00BF97E7000030
:10074000BC0000205C00002084000020780E002007
:1007500010B500F0EBFCFFF7F4FE00F007F900F035
:1007600047FD00F0B9FA00F060FC00210820FFF717
:10077000F5FE10BD00260025002400BF64E0002027
:1007800000F0E5FC0446214630A002F00BFE26B145
:10079000012E1CD0022E42D12EE0192095FBF0F143
:1007A00000FB115008B9FFF7D7FD052095FBF0F1CC
:1007B00000FB115008B9FFF7B8FE012C06D1701CE0
:1007C000032190FBF1F201FB1200C6B227E0012CDD
:1007D0000AD10120FFF722FF701C032190FBF1F2E8
:1007E00001FB1200C6B21AE0022C01D1FFF732FF62
:1007F0000020FFF713FF12E01A49087800F036F8DE
:10080000012C07D1701C032190FBF1F201FB1200B7
:10081000C6B203E0022C01D100F063F800BF00BFB4
:100820001DB900201049086004E0322D02D10120DA
:100830000D490860681C642190FBF1F201FB120075
:1008400085B2642002F0DEFC99E700005B4445427B
:1008500055475D5B4D454E555D096B65793A2025E1
:10086000640D0A00780E0020B401224270B50446DF
:10087000FFF754FE062C0EDB122C0CDAA01F2A49BF
:1008800011F8105001EB40004678284A31462846BE
:10089000FFF7B0FD1DE0062C0EDAC4F10600C0F132
:1008A0000B00214911F81050C4F10600C0F10B00F3
:1008B00001EB4000467807E0A4F112001A4911F854
:1008C000105001EB40004678194A31462846FFF7A0
:1008D00091FD184A00210F20FFF78CFDFFF719FE4C
:1008E00070BD70B5062500261CE036B9681C1821BD
:1008F00090FBF1F201FB1200C5B2701C0A2190FBC3
:10090000F1F201FB12062846FFF7B0FF642002F067
:1009100079FC002000F01BFC0446022C01D0032CC3
:1009200000D170BDE1E700002C4100087C400008C8
:10093000844000087440000810B56048006820F04A
:100940000F005E4908600846006840F00300086038
:1009500000205B490860142002F054FC0120594932
:10096000C1F880011E2002F029FC10BD08B501214C
:10097000042001F075FF0120ADF8000010208DF873
:10098000030003208DF8020069464C4801F046FC44
:1009900001204B490860FFF7CFFF08BD10B50024C8
:1009A00004E0601CC4B20A2002F008FC444880380D
:1009B000006808B10A2CF4DB002404E0601CC4B217
:1009C0000A2002F0FBFB3E488038006808B90A2C78
:1009D000F4DB282002F0F2FB39488038006808B1C7
:1009E000012010BD0020FCE770B50024002506E0C2
:1009F0006006040EFFF7D2FF0443681CC5B2082D41
:100A0000F6DB204670BD10B500242C48006820F0AD
:100A10000F002A4908600846006840F00800086096
:100A200004E0601CC4B20A2002F0C8FB24488038ED
:100A3000006808B10A2CF4DB0A2C01DB012010BD90
:100A4000002404E0601CC4B20A2002F0B7FB1C487A
:100A50008038006808B90A2CF4DB0A2C01DB01207D
:100A6000EDE70020EBE77CB50546FFF765FFFFF7F4
:100A7000CAFFF8B9002405E0FFF7B6FF0DF804003F
:100A8000601CC4B2052CF7DB9DF800009DF8011036
:100A900008449DF8021008449DF8031008449DF88E
:100AA0000410884208D19DF8000068709DF802008B
:100AB000287001E001207CBD0020FCE70008014017
:100AC000800121420000214200B58BB0012108467F
:100AD00001F0B9FE7C4800F039FF7C4800907C486A
:100AE0000190102002904FF4406003900020049089
:100AF0008020059000200690079008904FF48050C9
:100B0000099000200A9069466F4800F0C1FF012259
:100B100002216E480C3802F09EF80BB000BD00B503
:100B200087B00121042001F09BFE0121080301F0A0
:100B300097FE8020ADF8180018208DF81B000320C8
:100B40008DF81A0006A9634801F068FB4FF4404095
:100B5000ADF804004FF48270ADF806000020ADF847
:100B60000800ADF80A000120ADF80C004002ADF815
:100B70000E001020ADF810000020ADF81200072084
:100B8000ADF8140001A951480C3801F097FF01217C
:100B90004E480C3802F037F807B000BD10B5FFF72B
:100BA000BEFFFFF791FF10BD7CB5054600240CE0A9
:100BB00005F0010018B1C0200DF8040002E0F82093
:100BC0000DF804006D10601CC4B2082CF0DB00248A
:100BD0000FE01DF804103D480C3802F045F800BF46
:100BE00002213A480C3802F092F80028F8D0601C34
:100BF000C4B2082CEDDB7CBD70B505460E46002462
:100C000004E0285DFFF7D0FF601CC4B2B442F8DBFB
:100C100070BD2DE9F04106462D4D002414E000275B
:100C20000EE016F8048008F0010010B1F8202870DA
:100C300001E0C02028706D1C4FEA6808781CC7B21C
:100C4000082FEEDB601C84B2B4F5C07FE7DB002127
:100C50001D4800F048FF4FF4007000F073FF1A4881
:100C60003038006B40F0800017493039086318486D
:100C7000C8634FF44061144800F04AFF0121124854
:100C800000F031FFBDE8F08108B5C02000900021E0
:100C90000D4800F028FF4FF4007000F053FF0A48A1
:100CA0003038006B20F08000074930390863C1F804
:100CB0003CD04FF44061044800F02AFF0121024873
:100CC00000F011FF08BD0000300002400C30014070
:100CD000780200200008014000B587B001214FF4E0
:100CE000017001F0BDFD0220ADF8040000208DF878
:100CF000070001A92C4801F091FA2C4800F09CFB58
:100D0000002002908DF80C008DF80D004FF460204B
:100D100004900020059001208DF8180002A92348B6
:100D200000F0B1FB0121214800F0D9FB1F4800F081
:100D3000F8FB00BF1D4800F0F9FB0028FAD11B4862
:100D400000F0FEFB00BF194800F0FFFB0028FAD1BD
:100D500007B000BD10B5072301221146134800F06B
:100D60002AFC0121114800F0FAFB00BF02210F48C4
:100D700000F066FD0028F9D00C4800F083FC10BD9F
:100D800070B504460025002607E0FFF7E3FF0544A1
:100D9000052002F037FA701CC6B2A642F5DBB5FB9F
:100DA000F4F080B270BD0000000801400024014052
:100DB000F0B503460C461546642093FBF0F0C6B22E
:100DC000642093FBF0F700FB1730C1B2132E02DD55
:100DD00001F16400C1B20846CF1701EB977701EB30
:100DE000A707BAB2072092FBF0F700FB172082B2E8
:100DF0005719601EDFF818C31CF80000384482B28F
:100E0000CF1701EB9777BF10A1EB87071FB9032C12
:100E100001DA501E82B2072092FBF0F700FB172088
:100E2000C0B2F0BD0146CA1701EB92729210A1EB5D
:100E3000820292B9642091FBF0F200FB121050B9CB
:100E40004FF4C87091FBF0F200FB121008B90120BA
:100E500070470020FCE70120FAE70020F8E770B5B2
:100E600000260024002501F07FFD0646A948B6FBB8
:100E7000F0F4A9480088A0423CD0A7490C8040F279
:100E8000B27510E02846FFF7CDFF40B1B4F5B77F4B
:100E900002D3A4F5B77404E0681C85B206E0A4F29E
:100EA0006D14681C85B2B4F5B67FEBD800BF9B48C3
:100EB0008580002516E099498888FFF7B3FF30B197
:100EC000012D04D11D2C01D31D3C09E00CE09448F8
:100ED000405DA04203D89248405D241A00E003E040
:100EE000681C85B21C2CE6D200BF681C8B49887137
:100EF000601CC8718748B6FBF0F100FB11644FF429
:100F00006160B4FBF0F0854908704FF46160B4FB98
:100F1000F0F100FB11403C21B0FBF1F07F4948703B
:100F20004FF46160B4FBF0F100FB11403C21B0FBD9
:100F3000F1F201FB1200794988700B46DA79997950
:100F40009888FFF735FF75490872002070BD08B515
:100F500003208DF8000000208DF801008DF80200BC
:100F600001208DF80300684600F0FDF908BD2DE969
:100F7000F05F06460F4690469946DDE90AAB00242D
:100F800040F2B270864203DB40F63300864202DD57
:100F90000120BDE8F09F40F2B2750AE02846FFF755
:100FA00041FF10B15F48044401E05F480444681CFD
:100FB00085B2B542F2DB781EC7B2002510E0584872
:100FC000405D40F2A321484304EBC0143046FFF7D4
:100FD00029FF18B1012D01D14E480444681C85B287
:100FE000BD42ECDBA8F1010040F2A321484304EB31
:100FF000C014C9EB4910C0EB092004EB0014CAEB84
:101000000A1004EB80045C4401214FF0C05001F051
:1010100034FC012001F05BFA204601F0AEFC01F047
:10102000DFFCFFF71CFF0020B3E71CB50024012103
:101030004FF0C05001F021FC012001F048FA0420DB
:1010400000F057FC45F2500188423ED000F01CFCF5
:10105000012001F072FB04E0601CC4B20A2002F01F
:10106000D1F8412001F0D1FA0028F5D0FA2C01DBAB
:1010700001201CBD4FF4807001F07BFB012001F0CA
:101080007EFB01F0ADFC01F0B4FC0121084601F04B
:101090004BFC01F0A5FC01F054FC47F6FF7001F099
:1010A00079FC01F09DFC00200090034601221146CE
:1010B000019040F2B270FFF75AFF01F04BFC45F28D
:1010C0005001042000F009FC07E001F092FC01212E
:1010D000084601F029FC01F083FCFFF738FFFFF719
:1010E000BEFE0020C5E710B5012001F0A7FC08B145
:1010F000FFF7B5FE022001F0A1FC10B1022001F0C3
:10110000ADFC052001F0AAFC01F06AFC10BD000056
:101110004441000880510100BE000020780E0020EC
:10112000504100080085E2018033E10108B501214A
:10113000082001F095FB4FF4E070ADF80000482066
:101140008DF803006946284801F068F808BD10B51D
:10115000044614B10120254908702448007858B38A
:101160004FF48071204801F0ECF848B180211E480E
:1011700001F0E7F820B140211B4801F0E2F8D8B9AE
:101180000A2002F03FF80020184908704FF48071DF
:10119000154801F0D6F808B9012010BD8021124889
:1011A00001F0CFF808B90220F7E740210E4801F01E
:1011B000C8F8B0B90320F0E74FF480710A4801F095
:1011C000C0F801280DD18021074801F0BAF80128A4
:1011D00007D14021044801F0B4F8012801D10349A6
:1011E00008700020D9E70000000C0140C00000207A
:1011F00008B50121102001F033FB4FF40050ADF889
:10120000000010208DF8030003208DF802006946CD
:10121000044801F003F84FF40051024801F0ADF822
:1012200008BD00000010014010B501F0ABF901202D
:1012300001F09CFA4FF4803001F0C4F901F001FA9A
:101240000446012C2ED1102000F0BEFC022000F03C
:10125000A7FC600201F08DFA012001F090FA002055
:1012600001F035FAA00201F03BFA002001F041FA4A
:101270004FF4404001F058FA4FF4A011200401F05F
:1012800009FA012001F012FA00BF392001F0BDF97E
:101290000028FAD0022001F00CFA00BF01F012FA87
:1012A0000828FBD110BDFFF7BFFF01F06BFF4FF423
:1012B000E13001F0E3FF4FF4A06000F04FF8FFF7DA
:1012C00047FA0BA002F06EF80020FFF753FA0EE089
:1012D00000200C4908604FF47A7001F093FF012060
:1012E0000949C1F8B4014FF47A7001F08BFFEFE7C0
:1012F000496E69742066696E6973686564210D0AB8
:1013000000000000B401224200002242704700BFEA
:10131000FEE700BFFEE700BFFEE700BFFEE7704745
:10132000704770477047000008480047FEE7FEE737
:10133000FEE7FEE7FEE7FEE7FEE7FEE7FEE7FEE785
:1013400003480449024A044B70470000ED000008BE
:101350009010002090180020901000203149014387
:10136000314A1160704770B5002100230F22C47804
:1013700004B32D4C246804F4E064C4F5E064210A4D
:10138000C1F10403CA40447804FA03F1847814409C
:1013900021430901254C0678A155047804F01F0566
:1013A0000124AC4005786D11AD0005F1E025C5F8CC
:1013B000004109E0047804F01F050124AC401C4DF5
:1013C0000678761145F8264070BD1A4A0A40024355
:1013D000154B1B1F1A60704739B1134A121D126852
:1013E0000243114B1B1D1A6006E00F4A121D1268C2
:1013F00082430D4B1B1D1A607047042808D14FF023
:10140000E021096941F004014FF0E022116107E099
:101410004FF0E021096921F004014FF0E022116151
:10142000704700000000FA050CED00E000E400E069
:1014300080E100E080FFFF1F10B50446FA488442B7
:1014400008D10121401501F025FA0021601501F0B5
:1014500021FA17E0F548844208D10121001501F076
:1014600019FA0021201501F015FA0BE0F04884422A
:1014700008D10121C80301F00DFA00214FF400400A
:1014800001F008FA10BD30B5024600200023506874
:10149000E84C20400D790C6844EA05242043506054
:1014A0009068E54C2040D1E902542C434D7944EA40
:1014B000450420439060D06A20F470000C7C641EC8
:1014C000E4B2234340EA0350D06230BD0021016002
:1014D000017141718160C16001210174704721B1C6
:1014E000826842F00102826003E0826822F0010219
:1014F0008260704721B1826842F48072826003E0AA
:10150000826822F480728260704710B50023CBB2EB
:101510001AB144681C43446002E044689C43446040
:1015200010BD816841F008018160704701460020CC
:101530008A6802F008020AB1012000E0002070472A
:10154000816841F0040181607047014600208A688B
:1015500002F004020AB1012000E00020704721B12E
:10156000826842F4A002826003E0826822F4A00252
:1015700082607047014600208A6802F480020AB146
:10158000012000E00020704710B50A46002100232A
:10159000416821F46041531E41EA4331416010BD6E
:1015A00021B1426842F40062426003E0426822F4E2
:1015B000006242607047F0B504460D4600200021ED
:1015C000092D11DDE068A5F10A0606EB460707269E
:1015D00006FA07F18843A5F10A0606EB460603FA68
:1015E00006F10843E0600CE0206905EB450707269B
:1015F00006FA07F1884305EB450603FA06F10843AE
:101600002061072A0FDA606B561E06EB86071F263D
:1016100006FA07F18843561E06EB860605FA06F120
:101620000843606322E00D2A0FDA206BD61F06EB19
:1016300086071F2606FA07F18843D61F06EB8606A3
:1016400005FA06F10843206310E0E06AA2F10D06F6
:1016500006EB86071F2606FA07F18843A2F10D065E
:1016600006EB860605FA06F10843E062F0BD21B1FB
:10167000826842F48012826003E0826822F4801261
:10168000826070470146C86C80B2704766484C3033
:101690000068704721B1426842F48062426003E012
:1016A000426822F480624260704721B1426842F48D
:1016B0008052426003E0426822F4805242607047E8
:1016C0000A460021816821F4E0411143816070479E
:1016D00021B1826842F40042826003E0826822F411
:1016E00000428260704721B1826842F40212826037
:1016F00003E0826822F402128260704701460020F3
:101700008A6802F400120AB1012000E0002070474C
:10171000F0B504461546002000220026092911DDF7
:10172000E068A1F10A0707EB470C072707FA0CF25C
:101730009043A1F10A0707EB470703FA07F21043AA
:10174000E0600CE0206901EB410C072707FA0CF27E
:10175000904301EB410703FA07F210432061A06BAD
:10176000C0F30156EF1C06F1010CA7EB0C0707EBC9
:10177000870C1F2707FA0CF29043EF1C06F1010CAF
:10178000A7EB0C0707EB870701FA07F21043A063EA
:10179000F0BD10B50A4600210023816B21F44011F1
:1017A000531E41EA0351816310BD08B50023009325
:1017B0000090009B0B440093009B1A6008BD08B585
:1017C000024600200090009201F12800009B18447E
:1017D00000900098006880B208BD0A460021416868
:1017E000164B194011434160704741628262704755
:1017F0000A460021416821F01F01114341607047F2
:1018000040B109490831096841F40001064A08322B
:10181000116007E004490831096821F40001024A17
:101820000832116070470000002401400028014088
:10183000003C0140FFFEF0FFFDF7F1FFFFFD3FFF21
:101840000246002013680B400BB1012000E000208D
:101850007047CA430260704770B5024600200023FB
:1018600000240B125568CEB205EA060415681D4027
:1018700015B10CB1012000E0002070BD00220A1259
:10188000D34303607047000010B5012001F01CF83D
:10189000002001F019F810BD2A4908607047294955
:1018A000091F086070472749843108607047014666
:1018B0000020254A10884FF67F4210400843224AF4
:1018C00010807047014600201F4A10884FF6807232
:1018D000104008431C4A1080704708B5002200924F
:1018E000194A2C3A0092009A02440092009A116020
:1018F00008BD08B501460020009013482C38009020
:101900000098084400900098008808BD0D489C305D
:101910000068C0B270470C480830008840F00100F1
:1019200009490831088070470648A0300068C0B2F5
:10193000704705480830008840F00200024908312D
:101940000880704704860D422C6C004001684FF6F9
:10195000FE72114001600021016041608160C16040
:101960008D49884208D18C490839496841F00F01F6
:10197000894A083A51608AE087491431884208D17F
:1019800085490839496841F0F001834A083A5160B5
:101990007DE081492831884208D17F49083949686A
:1019A00041F470617C4A083A516070E07A493C31F8
:1019B000884208D178490839496841F47041764A2B
:1019C000083A516063E074495031884208D1724945
:1019D0000839496841F470216F4A083A516056E06D
:1019E0006D496431884208D16B490839496841F42E
:1019F0007001694A083A516049E067497831884284
:101A000008D165490839496841F07061624A083A6D
:101A100051603CE06149884206D1011F096841F0EC
:101A20000F01021F116032E05C491431884208D175
:101A30005A49091F096841F0F001584A121F116004
:101A400025E056492831884208D15449091F0968C0
:101A500041F47061514A121F116018E04F493C3146
:101A6000884208D14D49091F096841F470414B4A29
:101A7000121F11600BE049495031884207D1474994
:101A8000091F096841F47021444A121F1160704710
:101A900010B50022026847F6F0739A430C6A8B680F
:101AA00023430C6923434C6923438C692343CC694A
:101AB00023434C6A23438C6A23431A430260CB6856
:101AC00043600B6883604B68C36010BD00210160F8
:101AD00041608160C160016141618161C1610162F8
:101AE00041628162704721B1026842F001020260E6
:101AF00004E002684FF6FE731A40026070471AB1A4
:101B000003680B43036002E003688B430360704784
:101B1000416070470146486880B270470146002026
:101B2000002201F080531BB11C4B083B1A6802E0F5
:101B3000194B083B1A6802EA01030BB1012000E0CF
:101B40000020704700F0805119B11449091F086046
:101B500002E0114908394860704701460020002220
:101B600001F080531BB10D4B083B1A6802E00A4B91
:101B7000083B1A6802EA01030BB1012000E00020D3
:101B8000704700F0805119B10449091F086002E054
:101B900001490839486070470800024008040240C3
:101BA00001460020FE4A106800F03800084310602B
:101BB0007047FB49096821F00801F94A1160114694
:101BC0000968014311607047F549096821F0100167
:101BD000F34A116011460968014311607047F148EA
:101BE000EF494860F04848607047EE48EC4948606B
:101BF000ED4848607047EA48006940F08000E849D5
:101C000008617047E648006940F08000E4490861D7
:101C100070470420E249C96801F0010109B10120BF
:101C20000EE0DF49C96801F0040109B1022007E0B4
:101C3000DB49C96801F0100109B1032000E004206C
:101C4000704700B502460423FFF7E3FF034603E0B5
:101C5000FFF7DFFF0346521E012B01D1002AF7D107
:101C600002B90523184600BD30B5044604254FF4DB
:101C70003020FFF7E6FF0546042D17D1C84800695C
:101C800040F00200C649086108464461006940F01E
:101C9000400008614FF43020FFF7D3FF0546C048ED
:101CA000006941F6FD710840BD490861284630BD14
:101CB00010B504244FF43020FFF7C3FF0446042C72
:101CC00016D1B748006940F00400B54908610846DC
:101CD000006940F0400008614FF43020FFF7B1FF89
:101CE0000446AF48006941F6FB710840AC49086101
:101CF000204610BD00B502460423FFF78AFF0346C5
:101D000003E0FFF786FF0346521E012B01D1002A94
:101D1000F7D102B90523184600BD10B504244FF4CD
:101D20003020FFF7E7FF0446042C16D19C480069D9
:101D300040F004009A4908610846006940F04000FC
:101D400008614FF43020FFF7D5FF0446944800693E
:101D500041F6FB71084092490861204610BD002001
:101D60008F49C96901F0020109B1012000E000209A
:101D7000704730B5A5250424FFF7F1FF00B1002519
:101D80004FF43020FFF75DFF0446042C3AD185481C
:101D900083498860844888600846006940F02000D4
:101DA00008610846006940F0400008614FF43020A7
:101DB000FFF747FF0446042C1BD17948006941F620
:101DC000DF710840764908610846006940F010005C
:101DD000086176480580E002FFF733FF0446052CD2
:101DE00010D06F48006941F6EF7108406C490861F6
:101DF00008E0052C06D06A48006941F6EF710840FA
:101E000067490861204630BD78B506460C46042572
:101E100000200090E802FFF714FF0546042D24D1AE
:101E20005F48006940F001005D4908613480E802C4
:101E3000FFF707FF0546042D10D1B01C0090200CC1
:101E400000990880E802FFF7FCFE05465448006947
:101E500041F6FE7108405249086106E050480069A9
:101E600041F6FE7108404E490861284678BD70B5BC
:101E700004460D460426F002FFF7E3FE0646042E54
:101E800011D14748006940F00100454908612580AB
:101E9000F002FFF7D6FE06464148006941F6FE71A2
:101EA00008403F490861304670BD70B505460E4692
:101EB0000424E002FFF7C5FE0446042C17D139487C
:101EC00037498860384888600846006940F010004B
:101ED00008612E80E002FFF7B4FE0446052C06D010
:101EE0002F48006941F6EF7108402D4908612046EE
:101EF00070BD2DE9F04304464FF6FF763746B046F5
:101F0000B1460425E443E6B2C4F30727C4F3074807
:101F10004FEA1469E802FFF794FE0546042D49D103
:101F200020481F498860204888600846006940F0C2
:101F300010000861FF2E06D01C4808300680E80219
:101F4000FFF77FFE0546042D08D1FF2F06D0174866
:101F50000A300780E802FFF774FE0546042D0AD117
:101F6000B8F1FF0F07D011480C30A0F80080E8024C
:101F7000FFF767FE0546042D0AD1B9F1FF0F07D020
:101F80000A480E30A0F80090E802FFF75AFE054616
:101F9000052D0FD00248006941F6EF71084007E0B7
:101FA0000020024023016745AB89EFCD00F8FF1FF9
:101FB000664908612846BDE8F08330B5054604242B
:101FC0004FF43020FFF73DFE0446042C41D1604819
:101FD0005E4988605F4888600846006940F02000DC
:101FE00008610846006940F0400008614FF4302065
:101FF000FFF727FE0446042C22D15448006941F61D
:10200000DF710840514908610846006940F010003E
:1020100008611DB100205049088002E0A5204E490A
:1020200008804FF43020FFF70CFE0446052C10D03A
:102030004648006941F6EF7108404449086108E0EC
:10204000052C06D04148006941F6DF7108403F4940
:102050000861204630BDF0B505460E4617460424FB
:102060003B483A4988603B488860E002FFF7E9FD59
:102070000446042C19D13548006940F0100033495A
:10208000086147F0F800304328433349891C088031
:10209000E002FFF7D6FD0446052C06D02B48006968
:1020A00041F6EF710840294908612046F0BD2748F4
:1020B000C069800870472548006A7047002023499E
:1020C000096801F0200109B1012000E000207047FB
:1020D00029B11E4A126902431C4B1A6104E01B4AD3
:1020E00012698243194B1A61704701460020012989
:1020F00008D1164AD26902F001020AB1012008E0B3
:10210000002006E0114AD2680A400AB1012000E02E
:10211000002070470D49C860704704200B49C9680A
:1021200001F0010109B101200EE00849C96801F080
:10213000040109B1022007E00449C96801F0100157
:1021400009B1032000E00420704700000020024095
:1021500023016745AB89EFCD00F8FF1F10B504469A
:10216000CC48844208D10121042000F093FB0021D7
:10217000042000F08FFB46E0C748844208D10121CB
:10218000082000F087FB0021082000F083FB3AE0E4
:10219000C248844208D10121102000F07BFB0021BD
:1021A000102000F077FB2EE0BD48844208D10121C9
:1021B000202000F06FFB0021202000F06BFB22E0CC
:1021C000B848844208D10121402000F063FB00217F
:1021D000402000F05FFB16E0B348844208D10121A3
:1021E000802000F057FB0021802000F053FB0AE024
:1021F000AE48844207D10121801500F04BFB00213D
:10220000A01500F047FB10BD10B50121084600F0F5
:1022100041FB0021012000F03DFB10BD2DE9F04104
:10222000024600250026002000230024002791F804
:1022300003C00CF00F0591F803C00CF0100CBCF1BA
:10224000000F03D091F802C04CEA050591F800C0D8
:10225000BCF1000F31D0146800202BE04FF0010CCE
:102260000CFA00F3B1F800C00CEA03069E4220D13C
:1022700083004FF00F0C0CFA03F7BC4305FA03FC84
:102280004CEA040491F803C0BCF1280F06D14FF0CA
:10229000010C0CFA00FCC2F814C00AE091F803C06B
:1022A000BCF1480F05D14FF0010C0CFA00FCC2F84C
:1022B00010C0401C0828D1D31460B1F800C0BCF194
:1022C000FF0F34DD546800202EE000F1080C4FF0C1
:1022D000010808FA0CF3B1F800C00CEA03069E42AC
:1022E00021D183004FF00F0C0CFA03F7BC4305FA21
:1022F00003FC4CEA040491F803C0BCF1280F05D19B
:1023000000F1080C08FA0CF8C2F8148091F803C028
:10231000BCF1480F07D100F1080C4FF0010808FA92
:102320000CF8C2F81080401C0828CED35460BDE8D9
:10233000F0814FF6FF710180022181700421C1708C
:1023400070470246002093680B400BB1012000E06B
:10235000002070470146886880B27047024600201E
:10236000D3680B400BB1012000E00020704701460C
:10237000C86880B2704701617047416170470AB117
:10238000016100E041617047C16070474FF48032E5
:102390000A43826181618261826982697047024673
:1023A0000020434B18684FF68073184040EA021033
:1023B00008433F4B186070473E49C8617047F0B50D
:1023C0000A46002300240021002500F00046B6F153
:1023D000004F02D1364EF16901E0354E7168C0F30D
:1023E000034583B200F44016B6F5401F08D121F032
:1023F00070612F4E766826F070662D4F7E6012E079
:1024000000F48016B6F5801F06D1032606FA05F4FF
:10241000A14341F0706106E0460D360103FA06F66D
:10242000B14341F0706122B1460D360103FA06F660
:10243000314300F00046B6F1004F02D11C4EF1616D
:1024400001E01B4E7160F0BD30B500228B071C0F00
:102450000F2303FA04F2164B08338C1053F8243080
:102460009343134C08348D1044F8253023468C10C8
:1024700053F824308C07240F00FA04F423430C4C47
:1024800008348D1044F8253030BD0A49DC3108602D
:102490007047000000080140000C0140001001409E
:1024A0000014014000180140001C014000200140C0
:1024B000000001400000204210B50121080700F093
:1024C000F6F900214FF0805000F0F1F910BD2A49D3
:1024D0000862704728490861704701460020274A72
:1024E000106820F0E0000843106070472249A031D6
:1024F0000860704710B502460020204B186820F095
:102500000300104318601E4B1B6843F004031C4C6F
:102510002360012901D130BF00E020BF184B1B68A8
:1025200023F00403164C236010BD1448006840F0EB
:102530000400124908600846006840F00200086084
:102540000F48006840F004000D49086000BF00BF5C
:1025500030BF704701460020084A52680A400AB15D
:10256000012000E0002070470449096841EA800129
:10257000024A11607047000000000E4200700040E7
:1025800010ED00E0DF48006840F00100DD49086020
:1025900008464068DC490840DA4948600846006857
:1025A000DA490840D74908600846006820F48020CE
:1025B00008600846406820F4FE0048604FF41F00A1
:1025C00088607047CF49096821F48031CD4A116095
:1025D0001146096821F480211160B0F5803F03D0D5
:1025E000B0F5802F0ED106E0C649096841F480316C
:1025F000C44A116007E0C349096841F4A021C14AF7
:10260000116000E000BF00BF704710B50146002216
:10261000002300204A11012A02D1BA4C236806E0A7
:10262000022A02D1B74C236A01E0B64C636A01F07A
:102630001F02012494401C400CB1012000E0002046
:1026400010BD38B5002000900024002500BF3120C7
:10265000FFF7DBFF05460098401C00900098B0F59E
:10266000A06F01D0002DF2D03120FFF7CEFF08B1CE
:10267000012400E00024204638BD01460020A14A84
:10268000106820F0F80040EAC10010607047A049CF
:1026900008607047024600209A4B586820F47C106E
:1026A00042EA01031843974B5860704798490866FF
:1026B000704701460020934A506820F00300084309
:1026C000506070478F48406800F00C00704701462A
:1026D00000208C4A506820F0F0000843506070479A
:1026E00001460020874A506820F4E06008435060AB
:1026F000704701460020834A506820F4605040EA49
:10270000C1005060704729B17E4A527A02437D4B26
:102710005A7204E07B4A527A82437A4B5A7270476B
:102720007B49D8310860704701460020754A5068DF
:1027300020F440400843506070470021714A203225
:102740001170704A82F82010012802D004280AD1A2
:1027500004E001216B4A2032117005E00521694A2D
:102760002032117000E000BF00BF70476949086067
:1027700070476449096A0143624A116270476549BA
:1027800044390860704730B500210022002400233E
:102790005C4D6D6805F00C0121B1042905D00829B4
:1027A00023D105E05C4D056022E05B4D05601FE034
:1027B000544D6D6805F47012524D6D6805F4803407
:1027C000022505EB92421CB9544D554305600BE0C0
:1027D0004C4D6D6805F400351DB1504D55430560F5
:1027E00002E04D4D5543056002E04B4D056000BFD2
:1027F00000BF444D6D6805F0F0010909484D6B5C60
:102800000568DD4045603F4D6D6805F4E061090AEB
:10281000434D6B5C4568DD4085603A4D6D6805F45D
:102820006051C90A3E4D6B5C4568DD40C560354D61
:102830006D6805F44041890B3A4D6B5CC568B5FB8A
:10284000F3F5056130BD29B12E4A526902432D4B83
:102850005A6104E02B4A526982432A4B5A617047FD
:1028600029B1284A92690243264B9A6104E0254A1D
:1028700092698243234B9A61704729B1214AD269F8
:102880000243204BDA6104E01E4AD26982431D4BA9
:10289000DA61704729B11B4AD2680243194BDA60EA
:1028A00004E0184AD2688243164BDA60704729B1B7
:1028B000144A12690243134B1A6104E0114A126967
:1028C0008243104B1A6170471249403908607047C3
:1028D0000F49C86470470B49C87170470948406A7E
:1028E00040F0807007494862704701460020054A61
:1028F00092680A400AB1012000E0002070470149B7
:1029000088727047001002400000FFF8FFFFF6FEDB
:10291000000042428004424200127A0000093D0059
:10292000D8000020E800002029B1504A1288024354
:102930004E4B1A8004E04D4A128882434B4B1A805A
:1029400070474A48001D008840F010004749091DA3
:10295000088070474548001D00884FF6EF71084019
:102960004249091D08807047002140481C300188F9
:10297000001F008841EA0040704700B50246FFF79B
:10298000E0FF100C394918310880091D0A80FFF753
:10299000E1FF00BD00B50246FFF7D3FFC2F30340DD
:1029A000324908310880091D0A80FFF7D3FF00BDB6
:1029B00000B50246FFF7C5FF100C2C4920310880F6
:1029C000091D0A80FFF7C6FF00BD0020274910310E
:1029D00009880907080B25491431098808437047FD
:1029E00000BF2248001D008800F020000028F8D019
:1029F00070471E48001D00884FF6F77108401B49BC
:102A0000091D088000BF1948001D008800F008005B
:102A10000028F8D0704701460020144A121D128881
:102A20000A400AB1012000E0002070470F49091D4B
:102A3000098881430D4A121D11807047014600200C
:102A40000A4A121D12880A40D0B2084A12880A4067
:102A500012B108B1012000E0002070470349091DB0
:102A600009888143014A121D1180704700280040E7
:102A700010B50446BE48844208D101218014FFF7F6
:102A800009FF0021A014FFF705FF16E0B9488442B2
:102A900008D101210014FFF70AFF00212014FFF7DD
:102AA00006FF0AE0B448844207D10121C013FFF7B2
:102AB000FEFE0021E013FFF7FAFE10BD10B5002264
:102AC000028802F441520B884C8823438C882343AC
:102AD000CC8823430C8923434C8923438C8923438B
:102AE000CC8923431A430280838B4FF2FF74234027
:102AF00083830B8A038210BD2DE9F04F85B0054614
:102B00000C464FF0000902274FF000084FF0010B70
:102B10000026B246A88B4FF240010840A88302204D
:102B20002884B5F81C90A068022801D100BF38E0C5
:102B3000A08810B94FF0010B01E04FF0020B8D4857
:102B4000854200D100E000BF6846FFF71CFEDDF8BB
:102B500000A0E088B0F5007F0AD14FEA1A2000EB10
:102B600080004000A168B0FBF1F0401D86B20BE090
:102B70004FEA4B10BAFBF0F000EB80004000A16878
:102B8000B0FBF1F0401D86B20A20B6FBF0F606F06D
:102B90000108A6EB0800C0F34F074FF6FF7000EAEC
:102BA0000828022F01DBFF2F02DD02274FF000086B
:102BB000E08840EA080038432884A088A1890843B7
:102BC000618808432188084340F4006040EA09090D
:102BD000A5F81C9005B0BDE8F08F00210180418070
:102BE0008180C180018141818181C1810721018270
:102BF00070470021018041808180C1800221816075
:102C000000218181704721B1028842F04002028098
:102C100004E002884FF6BF731A400280704721B16A
:102C2000828B42F48062828304E0828B4FF6FF3312
:102C30001A408283704730B5002400230C1101250F
:102C4000A540ABB21AB185881D43858002E0858816
:102C50009D43858030BD1AB183880B43838002E099
:102C600083888B43838070478181704701468889C0
:102C700070474FF6FF62914204D0028842F480729E
:102C8000028004E002884FF6FF631A40028070471A
:102C900021B1828842F00402828004E082884FF6EB
:102CA000FB731A408280704702884FF2FF731A400C
:102CB000028002880A4302807047018841F48051F3
:102CC0000180704721B1028842F40052028004E082
:102CD00002884DF6FF731A400280704702460020BA
:102CE000012901D0108B00E0908A70470146088AC4
:102CF0007047B1F5804F04D1028842F480420280CF
:102D000004E002884BF6FF731A40028070470246C7
:102D1000002013890B400BB1012000E00020704718
:102D2000CA4302817047F0B5024600200024002308
:102D3000002501F00F070126BE40B4B20B11012699
:102D40009E40B3B2968806EA03051689264016B15E
:102D50000DB1012000E00020F0BD10B5002201F00F
:102D60000F040123A3409AB2D343038110BD000096
:102D70000030014000380040003C004010B50446DF
:102D8000FB48844209D101218803FFF783FD00211C
:102D90004FF48040FFF77EFD32E0F648844209D1CF
:102DA00001214804FFF783FD00214FF40030FFF7B5
:102DB0007EFD25E0F048844209D101218804FFF717
:102DC00076FD00214FF48020FFF771FD18E0EB48FD
:102DD000844209D10121C804FFF769FD00214FF4A5
:102DE0000020FFF764FD0BE0E548844208D1012193
:102DF0000805FFF75CFD00214FF48010FFF757FD39
:102E000010BD2DE9F04786B005460E460024A246C7
:102E100000BFA1460027B08900B100BF2F462C8A11
:102E20004CF6FF700440F08804432C82AC894EF6C7
:102E3000F3100440B0883189084371890843044382
:102E4000AC81AC8A4FF6FF400440B0890443AC82A9
:102E500001A8FFF798FCC648874202D1DDF810A010
:102E600001E0DDF80CA0A88900F4004040B10AEBB5
:102E7000CA0000EB0A1031684900B0FBF1F807E026
:102E80000AEBCA0000EB0A1031688900B0FBF1F8C8
:102E90006420B8FBF0F004012009642101FB1089D3
:102EA000A88900F4004040B1322000EBC900B0FB1B
:102EB000F1F000F00700044308E0322000EB0910B5
:102EC0006421B0FBF1F000F00F0004432C8106B048
:102ED000BDE8F0874FF41651016000218180C18068
:102EE00001810C21418100218181704710B502468A
:102EF0000020108A4FF2FF0318400B884C882343B0
:102F00008C882343CC8823431843108210BD0021B2
:102F1000018041808180C180704721B1828942F463
:102F20000052828104E082894DF6FF731A4082814B
:102F30007047F0B50346002400260025002040F627
:102F40006A17B94200D100BF1846C1F3421401F01C
:102F50001F06012707FA06F5012C01D10C3004E009
:102F6000022C01D1103000E014301AB107682F4351
:102F7000076002E00768AF430760F0BD1AB1838ABB
:102F80000B43838202E0838A8B4383827047028AE9
:102F90004FF6F0731A400282028A0A430282704797
:102FA00082894FF2FF731A40828182890A438281AB
:102FB000704721B1828942F00202828104E0828955
:102FC0004FF6FD731A4082817047028A4FF6DF7315
:102FD0001A400282028A0A430282704721B1028AA1
:102FE00042F48042028204E0028A4BF6FF731A40E8
:102FF00002827047C1F308028280704701468888C8
:10300000C0F308007047818941F001018181704758
:10301000028BD2B20283028B42EA01220283704702
:10302000028B02F47F420283028B0A4302837047C1
:1030300021B1828A42F02002828204E0828A4FF625
:10304000DF731A408282704721B1828A42F01002F7
:10305000828204E0828A4FF6EF731A4082827047C0
:1030600021B1828A42F00802828204E0828A4FF60D
:10307000F7731A408282704721B1828942F400427C
:10308000828103E08289C2F30E028281704721B1FE
:10309000828A42F40062828204E0828A4FF2FF73E5
:1030A0001A4082827047828A4FF6FB731A408282EE
:1030B000828A0A438282704721B1828A42F00202E8
:1030C000828204E0828A4FF6FD731A408282704742
:1030D00002460020B1F5007F00D100BF13880B40ED
:1030E0000BB1012000E00020704701F40072B2F53E
:1030F000007F00D100BFCA430280704770B502460E
:10310000002400230025002040F66A16B14200D1B9
:1031100000BFC1F3421501F01F03012606FA03F3B5
:10312000012D02D19689334006E0022D02D1168A84
:10313000334001E0968A33400C12012606FA04F46B
:103140001688344013B10CB1012000E0002070BD9E
:1031500010B50022002340F66A14A14200D100BF3E
:103160000A1201249440A3B2DC43048010BD000085
:10317000003801400044004000480040004C00403E
:103180000050004010B53148314908606FF004002C
:10319000FEF733F92E4800682E49B0FBF1F02E49B6
:1031A00008700846007800EB4001C1EBC0104FF6F4
:1031B000FF7101EAC0002949088010BD0146264A76
:1031C00012784A434FF0E0235A6100229A611A466E
:1031D000126942F001021A6100BF4FF0E02210694B
:1031E00000F001021AB100F48032002AF5D04FF04D
:1031F000E022126922F001024FF0E0231A6100225E
:103200009A6170470146154A12884A434FF0E023FD
:103210005A6100229A611A46126942F001021A614B
:1032200000BF4FF0E022106900F001021AB100F473
:103230008032002AF5D04FF0E022126922F001021C
:103240004FF0E0231A6100229A617047007E560316
:10325000C400002000127A00EC000020EE000020E4
:1032600000BF704700BF4A4A128802F04002002A9D
:10327000F9D0C2B2464B1B1D1A80704710B586B0FC
:103280000446012144F20400FFF7EAFA4FF400700B
:10329000ADF8140003208DF8160018208DF81700E3
:1032A00005A93C48FEF7BAFF4FF48060ADF8140062
:1032B00004208DF8170005A93648FEF7AFFF25203A
:1032C0008DF8000003208DF801008DF80200012028
:1032D0008DF803006846FEF746F801940020ADF82B
:1032E0000800ADF80A00ADF80C00ADF810000C2095
:1032F000ADF80E0001A92648FFF783FD012240F238
:1033000025512348FFF715FE01212148FFF705FE4F
:1033100006B010BD10B540F225511D48FFF7EEFE76
:1033200010B31B48FFF76AFEC4B21B48008800F4C4
:103330000040C8B91848008800F4804060B10A2CE9
:1033400003D000201449088020E01348008840F48E
:1033500000401149088019E00D2C06D10E48008864
:1033600040F480400C49088010E00B480088C0F30E
:103370000D000A490C5408480088401C0649088082
:1033800008460088C72801DD0020088010BD000025
:103390000038014000080140F4000020820E0020A7
:1033A000704700000FB4044910B503AA029800F05A
:1033B00013F910BC5DF814FBF00000202DE9F0417A
:1033C0000E460446002020622046E168884730B35C
:1033D000252805D0D4E901219047206A401CF2E756
:1033E000E168204600278847050018D0A5F1410074
:1033F000192802D820354FF4006732462946204666
:103400002760FCF7ADFE40B1012804D0F61D26F080
:1034100007060836D8E7361DD6E72846DAE7206AD9
:10342000BDE8F0812DE9F0410646002410687529B9
:10343000314616A510D0AFF30080002802DA4042D2
:1034400013A507E031688A0701D512A502E04907F4
:1034500004D511A5012401E0AFF3008000210A2268
:1034600006F1240709E0B0FBF2FCB0FBF2F302FB2B
:103470001C00303078541846491C0028F3D12346EC
:103480002A463046BDE8F04100F04CB8000000008C
:103490002D0000002B000000200000000B4910B59B
:1034A000A1F17C020A4CC2E93712372106E000EB99
:1034B000104342F82130074B00FB03400B1EA1F1E3
:1034C0000101F4DC10BD0120E8E70000C80F002076
:1034D000E119D666CD0D01004FF000020429C0F0BD
:1034E000128010F0030C00F08B80CCF1040CBCF1C6
:1034F000020F18BF00F8012BA8BF20F8022BA1EB88
:103500000C0100F07DB85FEAC17C24BF00F8012BFC
:1035100000F8012B48BF00F8012B70477047704737
:10352000704770472DE9F0470D469946924604468C
:1035300000F124080168880604D5E06921F0100133
:10354000216000E00120A84201DD471B00E00027C8
:10355000A1697A1902EB0900081AA0612078C00657
:1035600002D42046AFF30080002608E0D4E9012110
:103570001AF806009047206A401C761C20624E45CF
:10358000F4DB2078C0060AD52046AFF3008006E0C1
:10359000D4E9012130209047206A401C2062381E67
:1035A000A7F10107F4DC07E0D4E9012118F80500D0
:1035B0009047206A401C2062281EA5F10105F3DC1B
:1035C0002046AFF300802078000602D50220BDE837
:1035D000F0870120FBE70000074B70B50D467B44E8
:1035E00000F039F80446284600F048F810B14FF0D2
:1035F000FF3070BD204670BD83FCFFFF4FF000021E
:1036000000B5134694469646203922BFA0E80C50D8
:10361000A0E80C50B1F12001BFF4F7AF090728BFB3
:10362000A0E80C5048BF0CC05DF804EB890028BF2F
:1036300040F8042B08BF704748BF20F8022B11F058
:10364000804F18BF00F8012B7047000001694A1C29
:1036500002610878704700B58FB0CDE901310021D3
:10366000059105497944CDE9031011466846FFF7F5
:10367000A5FE0FB000BD0000E5FFFFFF007B00F0DE
:103680008000704700487047301000207546FFF7F3
:10369000F9FFAE4605006946534620F0070085460F
:1036A00018B020B5FDF74CFEBDE820404FF00006F5
:1036B0004FF000074FF000084FF0000B21F007011A
:1036C000AC46ACE8C009ACE8C009ACE8C009ACE85D
:1036D000C0098D4670470446AFF300802046FCF7D2
:1036E00053FD000090EA010F48BF81F0004100F156
:1036F0006281421A3CBF801A89184FEAD0524FF0BB
:103700007F4C1CEA410FA2EBD15318BF9CEA026F19
:1037100000F03B804FF0004C4CEA00204CEA0121C5
:1037200021FA03FC10EB0C0C1ED202F1FF325FEA0F
:103730001C2040EBC25038BF70471CF07F0F4FEA8F
:10374000400C18BFBCF17F4F38BF7047C3F1200356
:10375000994008BF20F00100BCF17F4F38BF70478F
:10376000A0F1C04000F01BB94FEA3C00000A40EB5A
:10377000C25028BF1CF0FF0F4FEA400CE6D018BF24
:10378000BCF17F4F38BF7047EAE79CEA026F05D073
:1037900010EA5C0F08BF00F00040704710B500F061
:1037A000B8F800BF64FBBE3EC10DD1F19E0206DB3E
:1037B0004FEA002343F0004323FA02F0704700422F
:1037C00007D54FEA4001B1F1FE4F02D24FF00000A1
:1037D000704710B500F09DF8499224800020704792
:1037E0006FEA200070470000B0FA80F310FA03F28D
:1037F000C3F19D030AD0D90501EB1220530638BF4F
:10380000704700F1010008BF20F001007047000080
:103810004FF47F0C1CEAD0121EBF1CEAD11392EAAF
:103820000C0F93EA0C0F00F0478090EA010F48BF9D
:1038300042F480724FF0004C4CEA00204CEA012127
:1038400002EB0302A0FB0113A2F50002002918BF3E
:1038500043F001035B0028BF4FEA330342EB2242EF
:103860005FEA132C4CEBC2502EBFBCEB436FB2F59A
:103870007C0F70474FEA036CBCF1004F08BF20F08B
:103880000100B2F57C0F38BF70470BD582F0FF0204
:1038900012F5803FC8BF704700F1C040D8BF00F0AC
:1038A0000040704700F5000C5FEA4C0C48BF7047C1
:1038B000B0F1C04000F073B890EA010F0CEAD113E8
:1038C00048BF42F48072624538BF634504D280EA43
:1038D000010000F00040704710B500F01AF800BF7A
:1038E0008900013E00F007B800F009B85FEA410C1A
:1038F0005FEA1C6C08D080EA010000F050B85FEA73
:10390000400C5FEA1C6CF6D14FF00040A0F580003F
:1039100070470EF1020E2EF0030E5EF8044B2442A7
:1039200004D44FEA4102B2F17F4F11D84FEA40036D
:10393000B3F17F4F0CD80ED14FEAD07CB2F17F4F5C
:103940000CEB4C0C0CF1020C08BF4CEBD17C04E0EE
:103950004FF0080C01E04FEAD17C0CEB4C0324FA49
:1039600003F404F00704B4F1040C06D20EEB840C4B
:10397000BDE810404CF0010C6047DFE80CF0070890
:1039800002024FF00040A0F5800010BD0846420042
:1039900018BFD2F1807288BF00F0004010BDFF2137
:1039A00041EAD050C005704790EA010F48BF81F04E
:1039B00000413FF59EAE421A04D882F00042A0EBCF
:1039C000020011444FEAD0524FF07F4C1CEA410FE5
:1039D000A2EBD15318BF9CEA026F4AD04FF0004CC3
:1039E0004CEA00204CEA012121FA03FCB0EB0C0C5C
:1039F0000FD412F0FE0F36D05FEA4C001DD5001236
:103A000040EBC25038BF70471CF03F0F18BF7047E3
:103A10000BE0A2F101025FEA1C2040EBC25038BF6C
:103A200070471CF07F0F18BF7047C3F12003994007
:103A300014BF401E20F00100704780084FEA122397
:103A400008BF7047B0FA80FCA2EB0C02CCF1280C46
:103A500060FA0CF093EA122F04BF00EBC2507047DB
:103A60004FEAC3707047130A5FEADC1008BF704763
:103A7000F6E79CEA026F04D010EA5C0F08BF002052
:103A8000704710B5FFF745FF40DFF63E81F000407C
:103A900070470000000000001440000814400008B7
:103AA000010000001C400008244000080200000043
:103AB0002C40000834400008030000003C4000088F
:103AC00044400008040000004C4000084C4000083E
:103AD000000000009A99993E0000003FCDCC4C3E7A
:103AE00000000000CDCCCC3DCDCCCC3ECDCC4C3E6E
:103AF0009A99993E00000000CDCCCC3D000000001A
:103B0000CDCCCC3E0000003F0000000000000007CC
:103B1000FF070301010303030000FF0300FF01008F
:103B2000FACC99CC0101AACC99FF00FFFF01020356
:103B300004050607FFFFFF02FFFF02FFFFFFFFFF75
:103B400002020202FFFFFF020204020402FFFFFF63
:103B5000020202020202020202FFFF02020202024B
:103B60000202FFFFFF03FF0203FF02FFFFFF03FF4D
:103B70000203FF02FFFF02FFFF02FFFFFFFFFF0242
:103B8000020202FFFFFF020204020402FFFFFF0223
:103B90000202020202020202FFFF0202020202020B
:103BA00002FFFFFF03FF0203FF02FFFF03FFFF020D
:103BB0000302FFFFFF02FFFF02FFFFFFFFFF020202
:103BC0000202FFFFFF020204020402FFFFFF0202E3
:103BD00002020202020202FFFF02020202020202CB
:103BE000FFFFFF03FF0203FF02FFFFFF0302FFFFD0
:103BF000FF02FFFFFF02FFFF02FFFFFFFFFFFFFFCC
:103C000002020202FFFFFFFFFFFF0204020402FFA5
:103C1000FFFFFFFFFF020202020202FFFFFFFFFFA2
:103C2000FF0202020202FFFF02FFFF02FF02020286
:103C30000202FF02FF02FF02FF0202020202FFFF76
:103C4000FFFF02FFFF02FFFFFFFFFFFFFF02020275
:103C500002FFFFFFFFFFFF0204020402FFFFFFFF5E
:103C6000FFFF020202020202FFFFFFFFFFFF02024C
:103C7000020202FFFFFF02FF02FF0202020202FF36
:103C800002FF02FF02FF0202020202FFFFFF02FF29
:103C9000FF02FFFFFFFFFFFFFF02020202FFFFFF25
:103CA000FFFFFF0204020402FFFFFFFFFFFF02020B
:103CB00002020202FFFFFFFFFFFF020202020202F6
:103CC00002FFFFFF02020202020202020202FFFFE3
:103CD00002FFFF02FFFFFFFFFFFFFF02020202FFE2
:103CE000FFFFFFFFFF0204020402FFFFFFFFFFFFD1
:103CF000020202020202FFFFFFFFFFFF02020202B6
:103D0000020202FF02FF020202020202020202FF9C
:103D1000FFFFFFFFFFFFFFFFFFFF0808FFFFFFFFA1
:103D2000FFFFFFFFFFFFFF0808FFFFFFFFFFFFFF91
:103D3000FFFFFF0808FF02FFFF02FFFFFFFF080869
:103D4000FFFF02020202FFFFFFFFFFFFFF0203026D
:103D50000302020202FFFFFFFF020202020202024E
:103D6000020202FFFFFFFFFFFF06FFFFFFFFFF064C
:103D7000FF04FFFF06FF04040505050504FF040515
:103D80000504FFFF04050504FFFF04040404FFFF0E
:103D900007FFFF07FFFFFF07FFFF07FF07FFFF0703
:103DA000FF04FFFFFFFF04040707070704FF0407E2
:103DB0000704FFFF04070704FFFF04040404FFFFD8
:103DC000FFFFFF060606FFFFFFFFFFFF06060605D3
:103DD000050606FFFF06FFFF0606060606FF06FFAE
:103DE000FFFFFFFFFFFFFFFF06FFFFFFFFFFFFFFDC
:103DF000FF06FFFFFFFFFFFFFFFFFF06FFFFFFFFC5
:103E0000FFFFFFFFFF06FFFFFFFFFFFFFFFFFFFFBB
:103E100007FFFF07FFFF0707FFFF07FFFF07FF077A
:103E2000FFFF07FFFF07FFFF07FFFF07FFFF070772
:103E3000FFFF07FFFF07FFFFFFFFFFFF01FFFFFF80
:103E4000FFFFFFFFFFFF01FFFFFFFFFF0101FFFF7C
:103E5000FF010101FFFF0101FF01FFFF0101FFFF62
:103E6000FF010101FFFF01010101FFFF0101FFFF50
:103E7000FF010101FF0101010101FFFF010101FF3C
:103E8000FF01010101010101010101010101010124
:103E9000010101010101010707070708FFFF0808E9
:103EA000FF01010101FF0101FF0101FF0101FF010C
:103EB00001FF01010101FFFF01FFFF01FFFF01FF02
:103EC000FF01FFFF01FFFF01FFFF01010101FFFFF4
:103ED00001FFFF0101010101FFFF01FFFF010101DE
:103EE000010101FFFF01FFFF01010101FFFF01FFD0
:103EF000FF0101010101FF0101FF0101FF010101BA
:103F000001FFFF01FFFF01FFFF0101010101FFFFB1
:103F100001FFFF010101FFFF01FFFF01010101019D
:103F2000010101FFFF01FFFF01010101FF0101FF8D
:103F300001010101010101FFFF01FFFF01FFFF017D
:103F4000FFFF01FFFF01FFFF0101010101FF01016F
:103F5000FF0101010101FF0101FF01010101010157
:103F60000101FF0101FF01010101FFFF01FFFF014D
:103F700001010101010101FF0101FF0101FF010137
:103F80000101FFFF01FFFF01FFFF01FFFF01FFFF35
:103F900001010101FFFF0101010101FFFF01010119
:103FA000010101FFFF01010101FFFF010101010109
:103FB000FF0101FF01010101FFFF01FFFF010101FD
:103FC0000101FFFF010101FFFF01010101010101E9
:103FD00001FFFF01010101FF01010101010101FFD9
:103FE000FF01FFFF01FFFF01FFFF0101010101FFD1
:103FF0000101010101FF0101010101010101FF01B5
:10400000010101FFFF0101010100000003040000A4
:104010002A3B000809070000363B0008090700009A
:10402000753B000809070000B43B00080B070000BF
:10403000F33B00080B070000403C00080B060000A3
:104040008D3C00080B060000CF3C00080C07000068
:10405000113D000806070000653D00080608000045
:104060008F3D00080A080000BF3D00080805000059
:104070000F3E000810060000373E00080202000054
:10408000973E0008020300009B3E00080307000063
:10409000A13E000803070000B63E00080307000029
:1040A000CB3E000803070000E03E000803070000C5
:1040B000F53E0008030700000A3F00080307000060
:1040C0001F3F000803070000343F000803070000FB
:1040D000493F0008030700005E3F00080305000099
:1040E000733F000803050000823F0008030500003D
:1040F000913F000803050000A03F000803050000F1
:10410000AF3F000803050000BE3F000803050000A4
:10411000CD3F000803050000DC3F00080305000058
:10412000EB3F000803050000FA3F0008020003020D
:1041300004040505060608060A060C060D050E040D
:104140000F02100000030306010406020500030528
:104150001F1C1F1E1F1E1F1F1E1F1E1F7C4100082D
:1041600000000020F8000000280100087442000848
:10417000F80000209817000044010008000000002B
:10418000000000000E000000000000000000000021
:104190000000000000000000090000000000000016
:1041A000000000000000000000000000943A000839
:1041B000A03A0008AC3A0008B83A0008C43A00082F
:1041C0000C0000000000000000000000943A00080D
:1041D00014400008000000008C40000894400008D3
:1041E0009C400008A4400008AC400008B44000080F
:1041F000BC400008C4400008CC400008D44000087F
:10420000DC400008E4400008EC400008F4400008EE
:10421000FC400008044100080C410008144100085B
:104220001C410008244100080000000000000000BC
:10423000000000000000000000000000010000007D
:1042400000A24A0400000000000000000102030474
:10425000060708090000000001020304010203042C
:10426000060708090204060800000000000000001C
:04427000000000004A
:04000005080000ED02
:00000001FF
